:100000000C9435000C945D000C945D000C945D0024
:100010000C945D000C945D000C945D000C945D00EC
:100020000C945D000C945D000C945D000C945D00DC
:100030000C945D000C945D000C945D000C945D00CC
:100040000C947E020C945D000C944C020C942602DD
:100050000C945D000C945D000C945D000C945D00AC
:100060000C945D000C945D00700411241FBECFEF52
:10007000D8E0DEBFCDBF11E0A0E0B1E0E6E0FEE0F9
:1000800002C005900D92A039B107D9F722E0A0E98E
:10009000B1E001C01D92A633B207E1F710E0C5E35D
:1000A000D0E004C02197FE010E94FB06C433D107B3
:1000B000C9F70E94C8020C9401070C940000AF928B
:1000C000BF92CF92DF92EF92FF920F931F93CF9345
:1000D000DF936C017B018B01040F151FEB015E01A7
:1000E000AE18BF08C017D10759F06991D601ED913C
:1000F000FC910190F081E02DC6010995892B79F7DB
:10010000C501DF91CF911F910F91FF90EF90DF908C
:10011000CF90BF90AF900895FC01538D448D252F53
:1001200030E0842F90E0821B930B541710F0CF9691
:10013000089501970895FC01918D828D981761F0C3
:10014000A28DAE0FBF2FB11D5D968C91928D9F5FDA
:100150009F73928F90E008958FEF9FEF0895FC01B9
:10016000918D828D981731F0828DE80FF11D858D6C
:1001700090E008958FEF9FEF0895FC01918D228DFF
:10018000892F90E0805C9F4F821B91098F73992784
:10019000089589E991E00E94BD0021E0892B09F4CE
:1001A00020E0822F089580E090E0892B29F00E94C2
:1001B000C90081110C9400000895FC01A48DA80FC2
:1001C000B92FB11DA35ABF4F2C91848D90E0019699
:1001D0008F739927848FA689B7892C93A089B189B9
:1001E0008C91837080648C93938D848D981306C05A
:1001F0000288F389E02D80818F7D80830895EF92BE
:10020000FF920F931F93CF93DF93EC0181E0888FD0
:100210009B8D8C8D98131AC0E889F989808185FFA0
:1002200015C09FB7F894EE89FF896083E889F98942
:1002300080818370806480839FBF81E090E0DF9144
:10024000CF911F910F91FF90EF900895F62E0B8D97
:1002500010E00F5F1F4F0F731127E02E8C8D8E1152
:100260000CC00FB607FCFACFE889F989808185FFB9
:10027000F5CFCE010E94DD00F1CFEB8DEC0FFD2F0D
:10028000F11DE35AFF4FF0829FB7F8940B8FEA8974
:10029000FB8980818062CFCFCF93DF93EC01888D83
:1002A0008823B9F0AA89BB89E889F9898C9185FDF1
:1002B00003C0808186FD0DC00FB607FCF7CF8C917F
:1002C00085FFF2CF808185FFEDCFCE010E94DD005A
:1002D000E9CFDF91CF9108958E50806480937C00A8
:1002E00080917A00806480937A0080917A0086FD04
:1002F000FCCF809178009091790008953FB7F894F1
:100300008091950190919601A0919701B0919801EB
:1003100026B5A89B05C02F3F19F00196A11DB11D60
:100320003FBFBA2FA92F982F8827BC01CD01620F9C
:10033000711D811D911D42E0660F771F881F991F57
:100340004A95D1F70895FC0101900020E9F7319713
:10035000AF01481B590BBC0189E991E00C945F0087
:100360008F929F92AF92BF920F931F93CF93DF9381
:10037000CDB7DEB7A1970FB6F894DEBF0FBECDBFE5
:1003800019A2423008F44AE08E010F5D1F4F842EFF
:10039000912CB12CA12CA50194010E94D906E62F25
:1003A000B901CA01EA30F4F4E05DD801EE938D01A1
:1003B000232B242B252B79F790E080E0109719F060
:1003C000CD010E94A301A1960FB6F894DEBF0FBE27
:1003D000CDBFDF91CF911F910F91BF90AF909F90B4
:1003E0008F900895E95CE1CFCF92DF92EF92FF9278
:1003F000CF93DF936C01990FEE08FF08F7FE1FC043
:100400006DE289E991E00E94FF00EC016627772701
:10041000CB016C197D098E099F094AE00E94B00149
:10042000C80FD91F82E191E00E94A3018C0F9D1F8C
:10043000DF91CF91FF90EF90DF90CF9008954AE049
:10044000C701B6010E94B001EC01ECCF1F920F92E0
:100450000FB60F9211242F933F934F935F936F9397
:100460007F938F939F93AF93BF93EF93FF9389E90C
:1004700091E00E94DD00FF91EF91BF91AF919F91BC
:100480008F917F916F915F914F913F912F910F903D
:100490000FBE0F901F9018951F920F920FB60F92DC
:1004A00011242F938F939F93EF93FF93E091A901D2
:1004B000F091AA018081E091AF01F091B00182FD3D
:1004C0001BC090818091B2018F5F8F732091B30127
:1004D000821741F0E091B201F0E0E756FE4F958FB0
:1004E0008093B201FF91EF919F918F912F910F9087
:1004F0000FBE0F901F9018958081F4CF1F920F921E
:100500000FB60F9211242F933F938F939F93AF9326
:10051000BF938091910190919201A0919301B0912C
:1005200094013091900123E0230F2D3758F5019667
:10053000A11DB11D20939001809391019093920190
:10054000A0939301B09394018091950190919601AD
:10055000A0919701B09198010196A11DB11D8093C2
:10056000950190939601A0939701B0939801BF9144
:10057000AF919F918F913F912F910F900FBE0F9050
:100580001F90189526E8230F0296A11DB11DD2CF0A
:10059000789484B5826084BD84B5816084BD85B55E
:1005A000826085BD85B5816085BD80916E0081606A
:1005B00080936E0010928100809181008260809310
:1005C0008100809181008160809381008091800012
:1005D0008160809380008091B10084608093B1003D
:1005E0008091B00081608093B00080917A00846037
:1005F00080937A0080917A00826080937A00809163
:100600007A00816080937A0080917A00806880937C
:100610007A001092C100E091A901F091AA0182E054
:100620008083E091A501F091A6011082E091A701DD
:10063000F091A80187E680831092B101E091AD01AD
:10064000F091AE0186E08083E091AB01F091AC01C6
:10065000808180618083E091AB01F091AC01808169
:1006600088608083E091AB01F091AC01808180686B
:100670008083E091AB01F091AC0180818F7D80831C
:1006800083E10E946C015C018EE00E946C018C0190
:100690008FE00E946C01EC0180E10E946C014C0132
:1006A00081E10E946C011C0182E10E946C01BC018D
:1006B000990F880B990B0E94B20520E030E040EAC8
:1006C00050E40E94670620E030EC4FE754E40E94BB
:1006D0000F0520E030E048EC52E40E9467066B0111
:1006E0007C012B013C0185E191E00E94A301C50141
:1006F0000E94F40182E291E00E94A301C8010E94DD
:10070000F40185E391E00E94A301CE010E94F4016F
:1007100088E491E00E94A301C4010E94F4018BE5EA
:1007200091E00E94A301C1010E94F40182E791E0DF
:100730000E94A301A7019601C701B6010E94D40639
:100740008823D1F184E891E00E94A30182E191E045
:100750000E94A3010E947E014B015C0188EEC82E1D
:1007600083E0D82EE12CF12C0E947E0168197909D2
:100770008A099B09683E734081059105A8F321E031
:10078000C21AD108E108F10888EE880E83E0981EAD
:10079000A11CB11CC114D104E104F10429F780E0CB
:1007A00090E0892B09F46CCF0E94C900882309F4DA
:1007B00067CF0E94000064CF46015701E894B7F864
:1007C0002FEF3FEF4FE75FE7C501B4010E94D4066A
:1007D00081110DC02FEF3FEF4FE75FE7C501B40177
:1007E0000E940A0518161CF488E891E0ADCF2FEF9F
:1007F0003FEF4FE75FE4C701B6010E94620618169B
:100800001CF48CE891E0A0CF2FEF3FEF4FE75FECB7
:10081000C701B6010E940A0587FDF3CF20E030E052
:10082000A901C701B6010E940A0587FF0BC06DE24E
:1008300089E991E00E94FF002601370177FA709460
:1008400077F870942AE037ED43EA5BE3C301B20125
:100850000E949E044B015C010E9481056B017C019A
:100860000E94B0059B01AC01C501B4010E949D042A
:100870004B015C014AE0C701B6010E94B0016EE283
:1008800089E991E00E94FF0020E030E040E251E47D
:10089000C501B4010E9467064B015C010E948105FD
:1008A0006B01F12CE12C4AE0C701B6010E94B001B6
:1008B000C701B6010E94B0059B01AC01C501B4019E
:1008C0000E949D0420E030E040E251E40E9467066F
:1008D0000E94810590E080E04AE00E94B00136CF9E
:1008E000E9E9F1E01382128288EE93E0A0E0B0E043
:1008F00084839583A683B78384E091E0918380838A
:1009000085EC90E09587848784EC90E097878687D4
:1009100080EC90E0918B808B81EC90E0938B828BCC
:1009200082EC90E0958B848B86EC90E0978B868BA5
:10093000118E128E138E148E08955058BB27AA273D
:100940000E94B5040C9428060E941A0638F00E94F2
:10095000210620F039F49F3F19F426F40C94170671
:100960000EF4E095E7FB0C941106E92F0E9439067E
:1009700058F3BA17620773078407950720F079F4D4
:10098000A6F50C945B060EF4E0950B2EBA2FA02D65
:100990000B01B90190010C01CA01A0011124FF272C
:1009A000591B99F0593F50F4503E68F11A16F04027
:1009B000A22F232F342F4427585FF3CF4695379526
:1009C0002795A795F0405395C9F77EF41F16BA0BEB
:1009D000620B730B840BBAF09150A1F0FF0FBB1F99
:1009E000661F771F881FC2F70EC0BA0F621F731FE2
:1009F000841F48F4879577956795B795F7959E3F3F
:100A000008F0B0CF9395880F08F09927EE0F9795CF
:100A1000879508950E94ED0508F481E008950E94ED
:100A200023050C9428060E94210658F00E941A06FD
:100A300040F029F45F3F29F00C94110651110C94F9
:100A40005C060C9417060E94390668F39923B1F3EB
:100A5000552391F3951B550BBB27AA2762177307E4
:100A6000840738F09F5F5F4F220F331F441FAA1F78
:100A7000A9F335D00E2E3AF0E0E832D09150504034
:100A8000E695001CCAF72BD0FE2F29D0660F771FE2
:100A9000881FBB1F261737074807AB07B0E809F0C8
:100AA000BB0B802DBF01FF2793585F4F3AF09E3F4D
:100AB000510578F00C9411060C945C065F3FE4F34A
:100AC000983ED4F3869577956795B795F7959F5F90
:100AD000C9F7880F911D9695879597F90895E1E0DC
:100AE000660F771F881FBB1F621773078407BA073B
:100AF00020F0621B730B840BBA0BEE1F88F7E09596
:100B000008950E94410688F09F5798F0B92F9927C1
:100B1000B751B0F0E1F0660F771F881F991F1AF0E8
:100B2000BA95C9F714C0B13091F00E945B06B1E0EC
:100B300008950C945B06672F782F8827B85F39F0EB
:100B4000B93FCCF3869577956795B395D9F73EF481
:100B500090958095709561957F4F8F4F9F4F089529
:100B6000E89409C097FB3EF4909580957095619547
:100B70007F4F8F4F9F4F9923A9F0F92F96E9BB27FD
:100B80009395F695879577956795B795F111F8CF79
:100B9000FAF4BB0F11F460FF1BC06F5F7F4F8F4FE4
:100BA0009F4F16C0882311F096E911C0772321F0DA
:100BB0009EE8872F762F05C0662371F096E8862F72
:100BC00070E060E02AF09A95660F771F881FDAF7C9
:100BD000880F9695879597F90895990F0008550FF6
:100BE000AA0BE0E8FEEF16161706E807F907C0F0B3
:100BF00012161306E407F50798F0621B730B840BBB
:100C0000950B39F40A2661F0232B242B252B21F494
:100C100008950A2609F4A140A6958FEF811D811D34
:100C2000089597F99F6780E870E060E008959FEF6E
:100C300080EC089500240A94161617061806090673
:100C4000089500240A941216130614060506089542
:100C5000092E0394000C11F4882352F0BB0F40F4CA
:100C6000BF2B11F460FF04C06F5F7F4F8F4F9F4F0A
:100C7000089557FD9058440F551F59F05F3F71F08C
:100C80004795880F97FB991F61F09F3F79F08795F3
:100C90000895121613061406551FF2CF4695F1DF7C
:100CA00008C0161617061806991FF1CF869571050C
:100CB000610508940895E894BB2766277727CB0140
:100CC00097F908950E94ED0508F48FEF08950E94AA
:100CD0007A060C9428060E941A0638F00E94210613
:100CE00020F0952311F00C9411060C941706112492
:100CF0000C945C060E94390670F3959FC1F3950F22
:100D000050E0551F629FF001729FBB27F00DB11D8F
:100D1000639FAA27F00DB11DAA1F649F6627B00D1F
:100D2000A11D661F829F2227B00DA11D621F739F08
:100D3000B00DA11D621F839FA00D611D221F749F16
:100D40003327A00D611D231F849F600D211D822F5D
:100D5000762F6A2F11249F5750409AF0F1F0882384
:100D60004AF0EE0FFF1FBB1F661F771F881F9150B1
:100D70005040A9F79E3F510580F00C9411060C9449
:100D80005C065F3FE4F3983ED4F3869577956795CC
:100D9000B795F795E7959F5FC1F7FE2B880F911DDB
:100DA0009695879597F908950E94ED05880B990B04
:100DB0000895A1E21A2EAA1BBB1BFD010DC0AA1F9C
:100DC000BB1FEE1FFF1FA217B307E407F50720F0B4
:100DD000A21BB30BE40BF50B661F771F881F991F2F
:100DE0001A9469F760957095809590959B01AC0178
:100DF000BD01CF010895EE0FFF1F0590F491E02D86
:060E00000994F894FFCFF5
:100E060000000000FF005F008C004C01BD009B004D
:100E1600AF000D0A004C4452312056616C75653A9C
:100E26002000566F6C746167652053656E736F7230
:100E360020313A2000566F6C746167652053656EE9
:100E4600736F7220323A2000566F6C7461676520AA
:100E560053656E736F7220333A2000437572726564
:100E66006E742053656E736F722056616C75653AA9
:100E7600200054656D706572617475726520284333
:100E8600293A20006E616E00696E66006F76660014
:00000001FF
